:020000040800F2
:100000009023002045010008FB240008E522000899
:10001000F9240008131300089128000800000000CC
:10002000000000000000000000000000FF240008A5
:100030001513000800000000FD2400080125000839
:100040005F0100085F0100085F0100085F01000810
:100050005F0100085F0100085F0100085F01000800
:100060005F0100085F0100085F0100085F010008F0
:100070005F0100085F0100085F0100085F010008E0
:100080005F0100085F0100085F0100085F010008D0
:100090005F0100085F0100085F0100085F010008C0
:1000A0005F0100085F0100085F0100085F010008B0
:1000B0005F0100085F0100085F0100085F010008A0
:1000C0005F0100085F0100085F0100085F01000890
:1000D0005F01000879280008852800085F010008F2
:1000E0005F0100085F0100085F0100085F01000870
:1000F0005F0100085F0100085F0100085F01000860
:100100005F0100085F0100085F0100085F0100084F
:100110005F0100085F0100085F0100089D250008DD
:100120005F0100085F0100085F0100085F0100082F
:10013000DFF80CD000F09EFE004800479D3A000812
:10014000902300200648804706480047FEE7FEE768
:10015000FEE7FEE7FEE7FEE7FEE7FEE7FEE7FEE777
:100160005525000831010008202A04DB203A21FA35
:1001700002F00021704721FA02F3D040C2F12002C0
:10018000914008431946704740EA01039B0703D09A
:1001900009E008C9121F08C0042AFAD203E011F8C6
:1001A000013B00F8013B521EF9D27047D2B201E088
:1001B00000F8012B491EFBD270470022F6E710B56C
:1001C00013460A4604461946FFF7F0FF204610BDC5
:1001D000421E12F8013F002BFBD111F8013B02F83F
:1001E000013B002BF9D1704730B505462A460B4636
:1001F00012F8010B13F8014B08B1A042F8D01CB162
:10020000002802D06D1CF1E7284630BD421C10F8D2
:10021000011B0029FBD1801A704730B5044600202D
:10022000034600E05B1C934203D2E05CCD5C401BC4
:10023000F8D030BD30B505460020034600E05B1C19
:10024000934205D2EC5CC85C201A01D1002CF6D197
:1002500030BD000000B58DB0099000920B904FF0BA
:10026000FF300A9000200C90044806900448079044
:100270006A4609A800F0E0FB0DB000BD550A000871
:10028000730A000801F0004330B421F0004150EA45
:10029000010206D00A0DA2F56072C1F31301002A13
:1002A00002DC30BC00207047440F44EAC104C100A6
:1002B000E01830BC00EBC25000F0ECBB30B50B4690
:1002C000014600202022012409E021FA02F59D4286
:1002D00005D303FA02F5491B04FA02F52844151E5A
:1002E000A2F10102F1DC30BD2DE9F05F05460020EE
:1002F00092469B4688460646814640241BE0284697
:10030000414647462246FFF72FFF53465A46C01A3A
:10031000914110D311461846224600F0BDFD2D1A1A
:1003200067EB01084F4622460120002100F0B4FD92
:1003300017EB00094E41201EA4F10104DFDC484602
:1003400031462A464346BDE8F09F2DE9FF4F1C4643
:1003500081B00021D4E9016791464FF0FF358A460C
:100360008846A1696D1C02988847216A83468847A0
:100370000028F6D1BBF1FF3F0CD026F4C066002F59
:100380001ADD700615D5BBF12B0F0AD0BBF12D0F6E
:100390000FD104E04FF0FF3005B0BDE8F08F46F418
:1003A0008066A1696D1C029888477F1E8346002FD6
:1003B00002DDBBF1300F03D0B9F1000F2AD025E0E8
:1003C000A1696D1C46F400767F1E0298884783461B
:1003D000002F05DDBBF1780F06D0BBF1580F03D01D
:1003E000B9F1000F10D011E0B9F1000F02D0B9F14E
:1003F000100F0BD1A1696D1C26F400767F1E0298A8
:1004000088478346102000E0082081464FEAE970C3
:10041000009017E00A20F8E74346AAFB092803FBEF
:100420000980DDF800C07F1E0AFB0C0112EB0B0AED
:1004300041EBEB78A16946F4007605F101050298DD
:1004400088478346002F06DD4946584600F053FD95
:100450005FEA000BE0D5E16902988847B00502D455
:100460006FF0010098E7F00718D1700610D57005FD
:10047000514605D50023D1EB030163EB080200E0F0
:1004800042462068031D23600068C0E9001205E0B1
:100490002068011D21600068C0E900A828467BE7AC
:1004A0002DE9FF5F1D464FF0FF3BD5E90146914620
:1004B0005F464FF00008A9697F1C01988847296AA8
:1004C000824688470028F6D1BAF1FF3F0CD024F4C9
:1004D000C064002E19DD600614D5BAF12B0F09D0C7
:1004E000BAF12D0F0ED103E0584604B0BDE8F09FDD
:1004F00044F48064A9697F1C01988847761E82466F
:10050000002E02DDBAF1300F03D0B9F1000F26D072
:1005100032E0A969761E44F400747F1C0198884774
:100520008246002E05DDBAF1780F06D0BAF1580FD9
:1005300003D0B9F1000F10D01EE0B9F1000F02D0C6
:10054000B9F1100F18D1A969761E24F400747F1C2C
:10055000019888478246102002E0082000E00A2027
:10056000814609E008FB0908A969761E44F4007475
:100570007F1C019888478246002E05DD494650467B
:1005800000F0B9FC0028EDDAE96901988847A00578
:1005900002D46FF00100A8E7E00725D1600613D56B
:1005A000600502D5C8F1000000E0404629680A1D38
:1005B0002A600968220501D5087015E0220701D5D7
:1005C000088011E008600FE02868011D29600068BC
:1005D000210502D580F8008006E0210702D5A0F8A9
:1005E000008001E0C0F8008038467EE72DE9FF5F1B
:1005F000D2E901A74FF00008916999461446DDF849
:1006000038B0464601988847054659EA0B0005D0A0
:1006100009E0A169761C019888470546216A2846A9
:1006200088470028F5D1681C03D05FEACA7005D05E
:1006300015E04FF0FF3004B0BDE8F09F2068011DC9
:100640002160D0F800800AE05FEACA7001D108F8A2
:10065000015BA169761C7F1E019888470546002F23
:100660001ADD681C18D0B9F1000F0DD0E81705EBA2
:10067000D060421120F01F0059F822102A1A0120E0
:1006800090400142E0D107E0BBF1000FDCD1216ACC
:10069000284688470028D7D0E16901988847BBF1F0
:1006A000000F07D1002E05DD5FEACA7002D10021DC
:1006B00088F80010A068B84203DDBBF1000F03D03A
:1006C00017B16FF00100B6E73046B4E72DE9FF4FF0
:1006D000087883B09946FF2805D0491C2D2804D0FE
:1006E0000024002008E000200BE00124F9E700EBE3
:1006F000800003EB4000491C0B78FF2BF7D104B1BD
:10070000404200230293147819461D462D2C01D037
:100710002B2C04D1521C2D2C13D000240294AA4659
:100720001478FF2C0FD00A25A3FB057801FB058167
:100730004FF0000C03FB0C11521CE3194AEB0101B2
:10074000EEE70124EAE7814453EA010002D019F5FB
:10075000C87F06DA03980021C0E9001107B0BDE8A0
:10076000F08F0025AE4E2F46DFF8B882184600F015
:10077000C4FDCDE90001B9F1000002DAC9F10004BD
:1007800000E004460023A74A1AEB030B42EB045A8D
:1007900012E0E00707D02A4633463846414600F0CB
:1007A00057FA074688462A4633461046194600F04F
:1007B0004FFA05460E466410002CEAD1DDE900012F
:1007C000B9F1000F5A46534606DA00F0B3FA3A463A
:1007D000434600F0AFFA05E000F03AFA3A464346E5
:1007E00000F036FA029A0AB181F00041039AC2E998
:1007F0000001B3E72DE9FF4F1F468DB0D7E9014651
:100800004FF0FF382E2045464FF000090B90B96994
:100810006D1C0E988847396A824688470028F6D1B1
:10082000BAF1FF3F0AD024F4D064002E11DDBAF1F2
:100830002B0F08D0BAF12D0F0BD102E0404611B0BA
:100840008DE744F48064B9696D1C0E988847824630
:10085000761E6946600501D52D2000E02B208DF81D
:10086000000001F1010B0DF1200809E0B9696D1CD0
:100870000E98884782460F9844F40074761E0560EF
:10088000002E02DDBAF1300FF0D00B998A453ED12F
:1008900044F0800406E00F99681CA9F1010944F4B2
:1008A00000740860B9696D1C761E0E9888478246F0
:1008B0003028F0D02BE00B998A4505D1200603D4CF
:1008C00044F08004761E18E0504602F0FFF808B3AA
:1008D0000DF11301761E44F400748B4508D2AAF181
:1008E00030000BF8010B200607D5A9F1010003E049
:1008F000200602D409F101008146A00502D50F9916
:10090000681C0860B9696D1C0E9888478246002EE5
:10091000D1DC53E0002E51DDBAF1650F02D0BAF1FF
:10092000450F4BD1A00549D5B9696D1C24F440741D
:10093000761E0E9888478246002E0CDD2B2804D0A8
:10094000BAF12D0F07D144F48074B9696D1C0E986B
:1009500088478246761EE00501D52D2100E02B2137
:1009600008F8011BCDF82C8021E00DF12901761E3D
:1009700044F4007488450CD2AAF1300010F0FF0056
:1009800088F8000002D10B99884509D908F10108BF
:1009900006E0E00501D5244801E042F20F708146EF
:1009A000B9696D1C0E98884782460F980560002E25
:1009B00004DD504602F08AF80028D6D1F9690E9875
:1009C0008847FF208BF8000088F800000020069080
:1009D00007904B466A4608A906A8FFF777FEA005D0
:1009E00002D46FF001002AE714F0240F0AD0E007C8
:1009F00014D1DDE906123868031D3B600068C0E9C8
:100A000000120BE0DDE90601FFF73CFC0146E007C0
:100A100004D13868021D3A600068016028460EE77C
:100A2000000014400000F03FF1D8FFFF02681144BD
:100A30001378016018467047D16004495161044938
:100A4000116200211161114600F064BA2D0A0008FC
:100A5000E50E0008426842B1016811F8013B23B17C
:100A6000521EC0E90012184670470121C160881E5D
:100A7000704742685AB1C368016843B983688B42C2
:100A800005D0491E521CC0E90012002070474FF0EB
:100A9000FF3070470029A8BF7047401C490008BFBD
:100AA00020F00100704710B4B0FA80FC00FA0CF09E
:100AB00050EA010404BF10BC704749B1CCF12004D6
:100AC00021FA04F411FA0CF118BF01212143084363
:100AD000A3EB0C01CB1D4FEA00614FEA102042BF8F
:100AE000002010BC704700EBC35010440029A4BF85
:100AF00010BC7047401C490008BF20F0010010BC2A
:100B000070472DE9FE4F804681EA0300C00F0C4676
:100B1000009021F0004123F00045B8EB0200A9410C
:100B200005D24046214690461C460B46024623F01D
:100B30000040104347D0270DC7F30A00C3F30A5102
:100B40000290401A019040286BDAC3F3130040F47E
:100B5000801B0098924620B10023D2EB030A63EB7E
:100B60000B0B01985946C0F14002504600F094F931
:100B700006460D4650465946019A00F09CF910EB86
:100B800008006141002487EA115284EAE7731A439E
:100B900040D0009A62B3019A012A4FEA075215DC4D
:100BA000001B61EB02014FF0004202EA0752CDE95F
:100BB0000042001C41F5801132462B4600F04FFBED
:100BC00003B0BDE8F08F40462146F9E7001B61EB1A
:100BD0000201001C41F5801300185B412018A2F5AA
:100BE000001747EB030140EAD570B6196D4111E0DB
:100BF0006D084FEA360645EAC0754FEA0752001BFA
:100C000061EB0201001C41F5801149084FEA3000F8
:100C10000019514132462B4603B0BDE8F04F00F0B9
:100C20000FBB0098012240000023D0EB020263EBCF
:100C3000E073009821464FEAE074B8EB000061EBE6
:100C40000401E9E783F000435BE781F0004158E7E6
:100C50002DE9FE4F81EA030404F0004421F0004135
:100C600000944FF0000B23F0004350EA01045ED0E3
:100C700052EA03045BD0C3F30A54C1F30A552C446F
:100C8000A4F2F3340194A0FB0254C1F3130141F424
:100C90008011C3F3130343F4801301FB024400FBF0
:100CA000034E840A970A44EA815447EA8357A4FB17
:100CB000076802958D0A05FB07854FEA932C04FB14
:100CC0000C542705029D4FEA065847EA1637B5EB44
:100CD00008056EEB070C870E920E47EA811742EA71
:100CE0008312A7FB0201B6EB0B0164EB00042B0D92
:100CF00043EA0C335E1844EB1C50DA465146E7FBDE
:100D00000201C5F313044FEA0B3343EA14534FEACD
:100D10000432019C43EA0603A4F10C040294009CF3
:100D2000CDE900B400F09BFA03B0BDE8F08F0020DD
:100D30000146F9E72DE9F04D81EA030404F0004B88
:100D400021F0004514464FF0000A23F0004150EA1C
:100D5000050220D054EA01021DD0C5F30A5702460D
:100D6000C5F31303C1F31300C1F30A5640F4801511
:100D700043F48013A7EB0608101BD64608F2FD3893
:100D800073EB050002D308F1010801E092185B4102
:100D9000B8F1000F03DA00200146BDE8F08D002015
:100DA0004FF48011064684460EE0171B73EB0507CF
:100DB00005D3121B63EB050306434CEA010C4908FB
:100DC0004FEA300092185B4150EA0107EDD152EA38
:100DD000030012D082EA040083EA0501084305D02B
:100DE000101BAB4106D20122002306E000224FF087
:100DF000004302E06FF0010253101AEB06004CEBC7
:100E0000085110EB0A0041EB0B01BDE8F04D00F07A
:100E100017BAC1F30A52C1F3130140F2FF3341F490
:100E200080119A4202DA00200146704740F23343B3
:100E30009A42A2F2334202DC5242FFF795B900F027
:100E40002BB8000030B5041E71F1000404DB4FF034
:100E50000044404264EB0101141E73F1000405DB01
:100E60001C464FF00043524263EB0403994208BF13
:100E7000904230BD064C074D06E0E06840F00103AB
:100E800094E8070098471034AC42F6D3FFF754F9C2
:100E9000243F0008443F0008202A04DB203A00FADF
:100EA00002F1002070479140C2F1200320FA03F3C1
:100EB000194390407047202A06DBCB17203A41FAAD
:100EC00002F043EAE07306E041FA02F3D040C2F1D7
:100ED00020029140084319467047000000487047BF
:100EE000883E000810B50446FFF7F8FF0068005D73
:100EF00000F0010010BD3A2800D2303820F0200266
:100F0000412A01D3A2F13700884201D34FF0FF30CC
:100F1000704700002DE9F34F8BB04FF0000801F14E
:100F20000C000C464FF0010B46460DF1080A0190EB
:100F30006269012101989047051E2DD0252D2CD0E6
:100F4000216A8847C0B16269012101989047216AEE
:100F500088470028F7D1411E62690198904700E058
:100F6000761CA1690B988847216A88470028F7D129
:100F7000E1690B988847DBE7A1690B98884707462A
:100F8000A84201D1761CD3E7E1690B9888477F1C02
:100F900002D1B8F1000F6FD046E1002762693D46EB
:100FA0003946019890472A2804D1626901210198A5
:100FB00090470125DFF884926269012101989047EA
:100FC000A0F130010A290AD24F45E5DC07EB870181
:100FD00000EB4107303FDFD445F01005ECE7E906B0
:100FE00001D46FF000476C280AD04C2814D0682830
:100FF00015D06A280DD074281CD07A281AD01DE08C
:1010000062690121019890476C2802D045F00405DF
:1010100014E045F002050DE045F020050AE06269A4
:10102000012101989047682802D045F0080505E0A5
:1010300045F400656269012101989047C4E90157B0
:1010400065283DD019DC58287AD00CDC452837D0EB
:1010500004DC252826D0412831D131E046282FD084
:1010600047282CD12CE05B2877D0612828D0632832
:101070007CD0642823D15AE0D0E06F2848D008DC27
:1010800066281DD067281BD0692821D06E2816D16C
:1010900027E0702845D0732868D0752847D0782875
:1010A0000DD14DE0A1690B988847054625283FF4EE
:1010B00069AFE1690B9888476D1C3FF46AAFB3E0F4
:1010C00023466A466FF001000B99FFF793FB9EE001
:1010D00045F040006060A80723464FF0000236D478
:1010E0003EE0E8077FF447AF2068011D21600068FB
:1010F000290501D506701BE7290701D5068017E7EA
:10110000A90703D5F117C0E9006111E706600FE7F1
:1011100045F040006060A80723464FF0080216D44F
:101120001EE040F60E0125EA0100606016E045F081
:1011300040006060A80723464FF00A0207D40FE082
:1011400045F040006060A80708D5234610226FF0E4
:1011500001000B99FFF7F9F859E007E02346102248
:101160006FF001000B99FFF79BF950E04FF0000979
:101170004F464B46632802D05B2806D040E0E80685
:1011800001D40120A06001273AE0626901210198A1
:1011900090475E2805D14FF00109626949460198E0
:1011A0009047216939B900210A46534643F8212066
:1011B000491C0829FADBB0B3216969B9C11700EBF2
:1011C000D16253110AEB830122F01F02821A01201F
:1011D0000B68904003430B606269012101989047BE
:1011E0005D28E8D1B9F1000F09D00020514651F82F
:1011F0002020D24341F82020401C0828F7DB02AB16
:10120000224600976FF001000B99FFF7EFF90028D5
:101210000CDA401C08D1BBF1000F05D04FF0FF30B5
:101220000DB0BDE8F08FFFE74046F9E7E90701D1CF
:1012300008F1010806444FF0000B79E6CCCCCC0C49
:1012400010B5141E73F1000408DA401C41F10001CE
:1012500092185B411A4301D120F0010010BD2DE925
:10126000F04D92469B4611B1B1FA81F202E0B0FA1C
:1012700080F220329046FFF70FFE04460F4640EA08
:101280000A0041EA0B0153465A46084313D011465F
:1012900053EA010019D0C8F140025046FEF764FF3E
:1012A00005460E46504659464246FFF7F5FD0843AF
:1012B00005D0012004E020463946BDE8F08D00202D
:1012C000054346EAE0762C4337430A986305E40A6F
:1012D000A0EB08000022FD0A44EA47540A3002D578
:1012E00000200146E9E7010510196941DDE90845DB
:1012F00000196941BDE8F04DA2E70EB540F2334256
:1013000002920022CDE900221346FFF7A8FF03B0A6
:1013100000BDFEE7704770472DE9F05F90F821109F
:101320000024022903D004218163012485E001689F
:101330000A6822F00E020A6001680A6822F00102BF
:101340000A603F4E3E4FB215DFF8F4C0DFF8F09070
:10135000DFF8ECA0DFF8E8B0DFF8E4E00168783F00
:1013600013011502ACF1640CA9F15009AAF13C0A71
:10137000ABF1280BAEF1140E4FF48018B14227D90F
:10138000B9420ED0614512D049451DD0514518D003
:10139000594518D0714501D1424615E0294EB14258
:1013A00001D1012210E0274E1436B14201D11022A2
:1013B0000AE0244E2836B14206D0224A3C329142FD
:1013C00001D11A4600E02A461E49091F0A602BE097
:1013D000B94213D0614517D0494522D051451DD09F
:1013E00059451DD0714501D142461AE0B14202D1A2
:1013F0004FF0807215E0134EB14201D1012210E08E
:10140000104E1436B14201D110220AE00D4E28369A
:10141000B14206D00B4A3C32914201D11A4600E05B
:101420002A46074980394A60012180F821100021AD
:1014300080F82010416B01B188472046BDE8F09F3D
:10144000800002400804024070B5044600F010F924
:101450000546601C02D004480078044400F008F9F6
:10146000401BA042FAD370BD080000202DE9F84FC0
:10147000DFF8C891002409F1040A0AF1040B23469D
:101480000F270BF1040ED1E00125A54006EA050265
:10149000AA4276D1DFF8A8C14E68A6EB0C086645D3
:1014A0002BD00DDC032E34D005DC36B3012E19D041
:1014B000022E2FD11BE0112E16D0122E2AD119E0A8
:1014C000B8F5881F19D006DCB8F5803F15D0B8F5FF
:1014D000801F1FD111E0B8F5001F0ED0B8F5041F12
:1014E00018D10AE0CB6815E0CB681B1D12E0CB6871
:1014F00008330FE0CB680C330CE08B682BB1012B69
:101500004FF0080303D0456104E0042302E00561C5
:1015100000E00023FF2A01D8064601E000F104069E
:101520004FEA840501D9A5F12005D6F8008007FA15
:1015300005FC28EA0C0803FA05F548EA0508C6F890
:1015400000804D68ED0070D53E4DAE6946F0010655
:10155000AE61AD6924F0030605F0010500953A4D32
:1015600006EB050CDCF80850A607360F07FA06F85C
:1015700025EA0805DFF8D480404503D14FF0000884
:1015800025E052E0DFF8C880404502D14FF0010865
:101590001DE0DFF8C080404502D14FF0020816E0A0
:1015A000DFF8B480404502D14FF003080FE0DFF8C8
:1015B000AC80404502D14FF0040808E0DFF8A0807D
:1015C000404502D14FF0050801E04FF0060808FA47
:1015D00006F848EA0508CCF808804D68D9F800609C
:1015E000ED034D4601D5164300E096432E604D684D
:1015F000DAF80060AD03554601D5164300E0964386
:101600002E604D68DBF80060ED025D4601D51643A3
:1016100000E096432E604D68DEF80060AD0275462E
:1016200001D5164300E096432E60641C0A681646F6
:10163000E2407FF429AFBDE8F88F000000040140CC
:10164000000011100010024000000140000801409D
:10165000000C01400010014000140140001801403E
:10166000001C01400AB1016170470904FBE700005A
:101670000148806870470000080000200248816827
:10168000027811448160704708000020074810B5B7
:10169000016841F010010160032000F073F80020A0
:1016A00000F006F800F024F8002010BD00200240F1
:1016B00070B50D4D04464FF47A712878B1FBF0F007
:1016C0000A490968B1FBF0F000F0EAFA48B9102CB9
:1016D00007D200222146501E00F034F800206C6032
:1016E00070BD012070BD0000080000201400002023
:1016F0000B4808B5816941F001018161816901F000
:1017000001010091C16941F08051C161C06900F0DF
:10171000805000900348416821F0E061416008BDBD
:101720000010024000000140002809DB00F01F0209
:10173000012191404009800000F1E020C0F8001133
:1017400070470000F0B40E4B1B680C46C3F3022335
:10175000C3F10705042D00D90425191D072901D25D
:10176000002300E0DB1E012606FA05F1491E214098
:1017700099409E40761E16403143F0BC01F0C4B83B
:101780000CED00E0064900F0070208684FF6FF0381
:10179000184040EA0220034A1043086070470000E6
:1017A0000CED00E00000FA052DE9F0470F460500BA
:1017B00061D0434E306800F00700B84209D230686B
:1017C00020F0070038433060306800F00700B8426E
:1017D00051D128683B4C810712D5400703D560687A
:1017E00040F4E06060602878000703D5606840F44A
:1017F000605060606068A96820F0F0000843606095
:101800002878C00728D06868012810D021680228ED
:1018100010D0890700292EDA616821F00301014305
:101820006160FFF725FF804641F288390DE02168AD
:101830008903EFE78901EDE7FFF71AFFA0EB080145
:10184000494502D90320BDE8F0876068696800F067
:101850000C00B0EB810FEFD1306800F00700B84208
:101860000BD9306820F0070038433060306800F052
:101870000700B84201D00120E5E72878400705D5E8
:101880006068E96820F4E060084360602878000739
:1018900006D56068296920F4605040EAC1006060A4
:1018A00000F038F86168084AC1F30311515CC84080
:1018B0000649086006480068FFF7FAFE0020C2E704
:1018C0000020024000100240ED3D000814000020FE
:1018D0000C0000200448054900684968044AC1F327
:1018E0000221515CC84070471400002000100240E3
:1018F000FD3D00080448054900684968044AC1F3F1
:10190000C221515CC8407047140000200010024002
:10191000FD3D000812A185B00FC98DE80F0014A08D
:10192000144A006804905168134801F00C03042B1A
:1019300010D0082B0ED1C1F38343C9031DF8030057
:101940000AD5516804AAC1F34041515C0A4A504388
:10195000B0FBF1F005B0704708494843FAE70000D2
:1019600002030405060708090A0B0C0D0E0F1010E0
:10197000010200000010024000127A0000093D0040
:101980002DE9F84F040070D02078C04DC00749D031
:101990006868C0F38100012807D06868C0F381003F
:1019A000022809D16868C00306D52868800339D5A4
:1019B00060680028E7D035E06068B0F5803F0BD064
:1019C00010B1B0F5A02F11D0286820F48030286025
:1019D000286820F4802002E0286840F480302860E5
:1019E000606890B1FFF744FE06460AE0286840F4BC
:1019F00080202860F0E700BFFFF73AFE801B6428D4
:101A000073D828688003F7D50CE0FFF731FE06464F
:101A100005E000BFFFF72CFE801B6428F0D8286883
:101A20008003F7D420789A4E80074FF001094FF0D9
:101A3000000839D5686810F00C0F07D06868C0F34B
:101A40008100022809D16868C00306D4286880078D
:101A500014D52069012808D110E02069B0B1C6F87A
:101A60000090FFF705FE074605E00AE1FFF700FEDC
:101A7000C01B0228C4D828688007F7D52868616988
:101A800020F0F80040EAC10028600DE0C6F80080B0
:101A9000FFF7EEFD074604E0FFF7EAFDC01B022852
:101AA00023D828688007F7D4207800072CD57948F8
:101AB000A169D9B1C0F80090FFF7DAFD074604E04C
:101AC000FFF7D6FDC01B02280FD8686A8007F7D53C
:101AD00071484FF4FA510068B0FBF1F0009000BF7C
:101AE0000098411E0091FAD20EE080E0C0F800801C
:101AF000FFF7BEFD074604E0FFF7BAFDC01B022852
:101B000075D8686A8007F7D42078400760D5E869FF
:101B10000027C00008D4E86940F08050E861E86917
:101B2000012700F0805000905C480168C90513D47B
:101B30000168834641F480710160FFF799FD824698
:101B400006E000BFFFF794FDA0EB0A0064284ED822
:101B5000DBF80000C005F5D5E06801280AD008B11F
:101B6000052813D0286A20F001002862286A20F096
:101B7000040002E0286A40F001002862E06841F2B7
:101B8000883B98B1FFF774FD82460BE0286A40F06D
:101B900004002862EEE700BFFFF76AFDA0EB0A0130
:101BA00059455AD8286A8007F6D50CE0FFF760FD42
:101BB000824605E0FFF75CFDA0EB0A0159454CD8D1
:101BC000286A8007F6D41FB1E86920F08050E861E8
:101BD000E06988B36968C1F38101022944D0022811
:101BE000C6F8608004D0FFF743FD044638E034E0D7
:101BF000FFF73EFD074604E0FFF73AFDC01B022851
:101C00002BD828688001F7D4206AB0F5803F05D131
:101C10006868A16820F4003008436860D4E90801CE
:101C20000843696821F4741108436860C6F860903D
:101C3000FFF71EFD044606E025E000BFFFF718FD94
:101C4000001B022809D828688001F7D51BE000BFD7
:101C5000FFF70EFD001B022802D90320BDE8F88F14
:101C600028688001F4D40EE00128F7D06868226A61
:101C700000F48031914204D1616A00F4701088420E
:101C800001D00120EAE70020E8E700000010024050
:101C900000004242800442421400002000700040D4
:101CA00010B5401EB0F1807F01D3012010BD4FF070
:101CB000E02460610F21601700F026FE0020A06183
:101CC00007202061002010BD7047704770B590F864
:101CD0003C20012A19D0012400F83C4F0222427016
:101CE00050F83C3C5A689D6822F070060A684968C2
:101CF000324325F0800529435A6050F83C2C91600E
:101D0000447000210170084670BD022070BD10B5FE
:101D1000040003D094F83D0010B107E0012010BD8D
:101D2000002084F83C00204600F00CF8022084F8E3
:101D30003D00211D206800F037FC012084F83D00A3
:101D4000002010BD08B500680B49884212D10B482D
:101D5000C16941F02001C161C069002200F020008A
:101D6000009011463720FFF7EDFCBDE80840372012
:101D7000FFF7DABC08BD000000140040001002406C
:101D80000168CA6842F00102CA600068816801F017
:101D90000701062903D0016841F00101016000201C
:101DA00070470168CA6822F00102CA600068016ACF
:101DB00041F21112114207D1016A9210114203D16E
:101DC000016821F00101016000207047704770B583
:101DD0000446006801694FF00005C943890715D41E
:101DE000C168C943890711D4E91E01610120207728
:101DF000206880698007204602D0FFF7E7FF04E0F3
:101E000000F098F8204600F096F8257720680169E0
:101E1000C943490717D4C168C943490713D46FF0B0
:101E200004010161022020772068806910F4407F5E
:101E3000204602D0FFF7CAFF04E000F07BF82046FE
:101E400000F079F8257720680169C943090716D49D
:101E5000C168C943090712D46FF008010161042069
:101E600020772068C0698007204602D0FFF7AEFFC8
:101E700004E000F05FF8204600F05DF82577206868
:101E80000169C943C90617D4C168C943C90613D437
:101E90006FF010010161082020772068C06910F4FC
:101EA000407F204602D0FFF791FF04E000F042F8A7
:101EB000204600F040F8257720680169C943C9072A
:101EC00008D1C168C943C90704D1891E01612046F0
:101ED00000F032F820680169C943090609D4C168D5
:101EE000C943090605D46FF0800101612046FFF760
:101EF000EBFE20680169C943490609D4C168C9439A
:101F0000490605D46FF040010161204600F022F837
:101F100020680169C94389060BD4C168C943890691
:101F200007D46FF0200101612046BDE87040FFF743
:101F3000CCBE70BD70477047054910B5884206D1C8
:101F400001F0A8FEBDE810400148FFF72ABF10BD10
:101F5000CC1A00207047704770B5026804461068BC
:101F6000D168536910F00F0F50D003F0010501F450
:101F7000907635435DD0C20705D0CA0503D5E26B24
:101F800042F00102E263420705D5DA0703D0E26BB3
:101F900042F00202E263820705D5DA0703D0E26B62
:101FA00042F00402E263020705D5DA0703D0E26BD0
:101FB00042F00802E263E26B002A33D0800604D5C7
:101FC000880602D5204600F04BFB20684069E16B93
:101FD000C0F38010090700D428B3204600F032FB7C
:101FE0002068416949061AD5416921F040014161E3
:101FF000606BA0B11B494163606BFFF78DF900284E
:1020000010D0606B416BBDE870400847830610D567
:102010008B060ED52046BDE8704000F021BB20465F
:10202000FFF799FF70BD2046FFF795FF0020E063A2
:1020300070BD030606D50B0604D52046BDE87040EA
:1020400000F0B6BB4006F3D54806F1D5D16820466E
:1020500021F04001D160202184F8391000F041F9CD
:1020600070BD00003526000870B5040004D094F857
:102070003900002510B106E0012070BD84F8385009
:10208000204600F023F8242084F839002068C16835
:1020900021F40051C160204600F02EFB2068016948
:1020A00021F4904101612068416921F02A014161D8
:1020B0002068C16841F40051C160E563202084F8C4
:1020C000390084F83A00002070BD000070B586B079
:1020D000002400940194029403942E4E03682E4928
:1020E000022003222D4DB34226D18B6943F4804355
:1020F0008B618B6903F4804304938B6943F0040381
:102100008B618969039201F0040104910102CDE918
:10211000001069462846FFF7A9F92815CDE9000403
:10212000694628460294FFF7A1F9002211462520AE
:10213000FFF708FB252028E0194EB34227D1CB69D1
:1021400043F40033CB61CB6903F4003304938B6910
:1021500043F004038B618969039201F00401049147
:102160000421CDE9001069462846FFF77FF90820D1
:10217000CDE90004694628460294FFF777F900226A
:1021800011462620FFF7DEFA2620FFF7CDFA06B02B
:1021900070BD0000003801400010024000080140FE
:1021A0000044004090F83A30202B22D1F9B1F2B12E
:1021B00090F83830012B1CD081628285C2850021C5
:1021C000C163222280F83A2080F838100168CA687A
:1021D00042F48072CA6001684A6942F001024A61B1
:1021E0000068C16841F02001C160002070470120F3
:1021F000704702207047000010B500680749884208
:102200000AD1012206490748FFF7CCFF04480078AD
:10221000BDE8104001F0A0BC10BD0000004400402B
:10222000060000204C1B00202DE9F843044690F8DE
:1022300039001F4616460D46202850D1A5B19EB143
:1022400094F8380001284AD0012084F838004FF073
:102250000008C4F83C80212084F83900FFF708FA10
:10226000A6848146E68426E00120BDE8F883E08C60
:10227000401EE084A0684B46B0F5805F4FF000023E
:102280004FF080012046009703D000F0C2FAE8B971
:102290000DE000F0BEFAC8B928882168C0F3080034
:1022A0004860206908B16D1C05E0AD1C03E02168A1
:1022B00015F8010B4860E08C0028D8D14B4600226D
:1022C00040212046009700F0A4FA08B10320CCE793
:1022D000202084F8390084F838800020C5E70220E7
:1022E000C3E77047FEE700002DE9F04786B0002500
:1022F0004C480095019502950395816941F0400194
:102300008161816901F040010491816941F010010E
:102310008161816901F010010491816941F08001BE
:102320008161816901F080010491816941F00401BA
:102330008161816901F004010491816941F0080122
:102340008161816901F008010491816941F4807122
:102350008161816901F480710491816941F02001FA
:1023600081618069304E00F020000490002220211D
:102370003046FFF777F9DFF8B4A00022202150465D
:10238000FFF770F94FF6DF700324CDE900046946CA
:102390003046FFF76BF820274FF002094FF0010895
:1023A000CDF80C900097CDE9018569463046FFF7DE
:1023B0005DF843F6FF70CDE9000469461C48FFF75D
:1023C00055F84FF6FF76CDE9006469461948FFF7E6
:1023D0004DF841F6F310CDE9000469461648FFF7C1
:1023E00045F84FF6C770CDE9000469465046FFF73F
:1023F0003DF8CDE9006469461048FFF737F8CDE9AC
:10240000006469460E48FFF731F8CDF80C9000974C
:10241000CDE9018569465046FFF728F806B0BDE8CA
:10242000F08700000010024000180140000C01403D
:1024300000100140001C0140000801400020014044
:10244000001401401CB500240E4800940C4901946E
:10245000016041F61F41C0E9011463218461C1603C
:10246000FFF755FC08B1FEF756FF00946946054892
:102470000194FFF72BFC002801D0FEF74CFF1CBD98
:1024800000140040CC1A00200C4810B50A49016025
:102490004FF4E1314160002181600C22C160C0E94C
:1024A00004128161C161FFF7DFFD002803D0BDE8A0
:1024B0001040FEF730BF10BD003801400C1B00205B
:1024C0000C4810B50A4901604FF4165141600021D3
:1024D00081600C22C160C0E904128161C161FFF713
:1024E000C3FD002803D0BDE81040FEF714BF10BDA7
:1024F000004400404C1B0020FEE7704770477047C7
:10250000FFF7BCB830B58FB028216846FDF755FEFF
:1025100014210AA8FDF751FE01210804CDE900109D
:102520000024029402250491CDE907504FF4E010F5
:1025300009906846FFF724FA0F20CDE90A056802E2
:10254000CDE90C4002210AA80E94FFF72DF90FB037
:1025500030BD00000D48016841F001010160416893
:102560000B4A1140416001680A4A1140016001684C
:1025700021F480210160416821F4FE0141604FF4A3
:102580001F0181600449C0030860704700100240C9
:102590000000FFF8FFFFF6FE08ED00E00148FFF73E
:1025A00016BC0000CC1A0020F0B502681C4B1D4D73
:1025B0001D4E1E4F1E4C4FF0804C984209D0A04239
:1025C00007D0604505D0A84203D0B04201D0B84240
:1025D00004D122F0700E4A6842EA0E02984209D0F5
:1025E000A04207D0604505D0A84203D0B04201D038
:1025F000B84203D122F44075CA682A434D6922F0DB
:1026000080022A4302608A68C2620A688262984233
:1026100001D0A04201D10969016301214161F0BDEE
:10262000002C01400004004000080040000C004065
:102630000034014010B5406A0021C185C184FFF714
:102640008AFC10BD0168CA6822F49072CA600168F1
:102650004A6922F001024A61202180F83A1070474D
:1026600010B590F83A10222901D0022010BD8168DF
:10267000B1F5805F11D00169002901681FD0496858
:1026800001F07F03816A4A1C82620B70C18D491E72
:102690000904090CC18518D02BE00269816A002A5F
:1026A0000268526805D0D2B20A80816A491C8162F0
:1026B000ECE7C2F308020A80816A891CF7E74A68DE
:1026C000816A4B1C83620A70E0E70168CA6822F0E5
:1026D0002002CA600168CA6822F48072CA60016878
:1026E0004A6922F001024A61202180F83A10FFF77E
:1026F00083FD002010BD00002DE9F0410446006874
:102700000169E26821F44051114301612169A06827
:102710000843616908432168CA6841F20C639A431F
:102720000243CA6020684169A26921F440711143E3
:1027300041611E49206864253226884202D1FFF794
:10274000D9F801E0FFF7C6F800EBC00101EB00117A
:1027500060686FF018078000B1FBF0F2B2FBF5F291
:10276000B1FBF0F37A4303EB8202B1FBF0F306EB2B
:102770000212B2FBF5F2B3FBF5F302F0F00202EB4A
:102780000312B1FBF0F3B1FBF0F0B0FBF5F07843CE
:1027900003EB800006EB0010B0FBF5F0216800F0C1
:1027A0000F0010448860BDE8F0810000003801404F
:1027B00090F83910212901D0022070478168B1F5C5
:1027C000805F016A0BD04A1C02620268097851607E
:1027D000C18C491E0904090CC1840ED017E0098878
:1027E0000268C1F30801516001690029016A02D041
:1027F000491C0162ECE7891CFBE70168CA6822F00A
:102800008002CA600068C16841F04001C1600020D8
:1028100070472DE9F041984617460E460446069D3E
:102820001DE0681C1BD02DB1FEF722FFA0EB0800B5
:10283000A84214D92068C16821F4D071C160206811
:10284000416921F001014161202084F8390084F8B8
:102850003A00002084F838000320BDE8F0812068A9
:10286000006836EA000004D00020B842D9D0002029
:10287000F3E70120F9E700000148FFF76DBB000016
:102880000C1B00200148FFF767BB00004C1B002019
:10289000FEE700000FB4054B10B503A9044A0298E7
:1028A00000F01CF910BC5DF814FB0000D9390008D9
:1028B000180000200FB4084B10B504A902AA039811
:1028C00000F00CF9044602A9002000F0A9FC204603
:1028D00010BC5DF814FB0000213200087CB50446F2
:1028E00000201D46164600290BD0491ECDE90041A7
:1028F000044B6A462946304600F0F0F8009A002161
:1029000011707CBD0B3200080907090E002804DB9A
:1029100000F1E02080F80014704700F00F0000F193
:10292000E02080F8141D704702E008C8121F08C19B
:10293000002AFAD170477047002001E001C1121F40
:10294000002AFBD1704700002DE9FF5F82B0002113
:10295000DDE90430020DDDF840B0034318D044F641
:102960001050A2F2FF3242431514119801281FD0D3
:10297000A5EB0B00401C5FEA000A4FF000064E4F2B
:10298000DFF83891B046504615D5CAF1000413E07F
:10299000119801244AA3012801D16FEA0B01029882
:1029A000119AC0E90031C0E9024206B0BDE8F09FCB
:1029B000CBF10000DFE704460021404A491842EB12
:1029C0000450CDE9001012E0E00707D032463B4644
:1029D00040464946FEF73CF98046894632463B462A
:1029E00010461946FEF734F906460F466410002CCF
:1029F000EAD1DDE90401DDE90023BAF1000F06DACE
:102A0000FEF726F942464B46FEF722F905E0FEF7AF
:102A100091F942464B46FEF78DF904460E460022D8
:102A2000284BFEF70FFA03D84FF0FF30014607E0BE
:102A30000022254B20463146FEF763F8FEF7E9F900
:102A4000102409E0002C0ADB0A220023FDF74CFCCD
:102A5000039B30321A55641E50EA0102F2D1641C05
:102A6000039AC4F111031444119A012A03D00122DC
:102A700008430DD10AE0084304D000204FF0110BA9
:102A8000119072E7A3EB0B056D1E0DE05B4504DDB5
:102A90004FF0000205F1010504E003DA4FF00002F7
:102AA000A5F10105002AECD002981199C0E9023184
:102AB000C0E9004579E70000000014400000F03F45
:102AC000300000000000F0430000E03F30380A28EA
:102AD00001D2012070470020704700002DE9FF4F10
:102AE00095B09B468946064600250FE2252877D1FA
:102AF00000242746F84A0121059400E0044316F813
:102B0000013F203B01FA03F01042F7D130782A2828
:102B100011D06FF02F033078A0F13002092A16D8B7
:102B2000059A44F0020402EB820203EB42021044D5
:102B3000761C0590EFE759F8042B0592002A03DA7A
:102B4000504244F40054059044F00204761C30785E
:102B50002E2816D116F8010F44F004042A280DD0AF
:102B60006FF02F023078A0F13003092B09D807EB62
:102B7000870302EB4303C718761CF3E759F8047B7D
:102B8000761C30786C280FD006DC4C2817D06828CB
:102B90000DD06A2814D104E0742810D07A280FD1FF
:102BA0000DE044F400140AE044F4801401E044F41D
:102BB00040147278824202D104F58014761C761C8F
:102BC000307866280BD013DC582877D009DC002831
:102BD00075D04528F6D04628F4D047281AD19DE173
:102BE00018E0632835D0642879D0652812D195E1A2
:102BF000702873D008DC6728F1D069286FD06E2860
:102C00000DD06F2806D1B5E073282CD0752875D06B
:102C1000782874D05A46179990476D1C75E1C4F313
:102C20000250022809D003280DD0D9F8001004283A
:102C30000DD00D6009F1040967E1D9F80010EA1719
:102C4000C1E90052F6E7D9F800100D80F2E70D70E7
:102C5000F0E719F8041B8DF8001000208DF8010032
:102C6000EA46012003E059F804AB4FF0FF3061075A
:102C70004FF0000102D40DE008F101018846B9428D
:102C80000FDA8045F8DB1AF808100029F4D108E0C3
:102C900008F1010188468142FADB1AF80810002980
:102CA000F6D105985B46A0EB080721463846179AEF
:102CB00000F094FA284400EB080507E04DE029E114
:102CC0000DE01AF8010B5A4617999047B8F1010820
:102CD000F7D25B4621463846179A13E142E00A22B2
:102CE0000092C4F302524FF0000A022A08D059F8A9
:102CF00004CB032A4FEAEC710AD00DE029E02AE068
:102D000009F1070121F00702F2E802C1914609E04A
:102D10000FFA8CFC4FEAEC71042A03D14FFA8CFCB9
:102D20004FEAEC71002907DA0A460021DCF1000CB9
:102D300061EB02012D2202E0220504D52B228DF841
:102D40000420012203E0E20701D02022F7E79046A9
:102D500059E00A2102E010220DE010214FF0000A94
:102D600000910BE010224FF0000A44F00404082701
:102D7000009203E008224FF0000A0092C4F30252CE
:102D8000022A05D059F804CB0021032A08D009E013
:102D900009F1070121F00702F2E802C1914605E0BE
:102DA0001FFA8CFC042A01D10CF0FF0C4FF0000834
:102DB000220728D5702806D0009B83F0100353EA21
:102DC0000A0305D00EE040228DF80420012208E01D
:102DD0005CEA010206D030228DF804208DF805004F
:102DE00002229046009B83F0080353EA0A030AD1AB
:102DF0005CEA010201D1620705D530228DF804207A
:102E00004FF001087F1E582804D034A003900EA86C
:102E100002900DE036A0F9E753466046009AFDF7B0
:102E200063FA84460398825C0298401E0290027006
:102E30005CEA0100F0D1029806A9081A00F1200A04
:102E4000600702D524F4803400E00127574502DDF5
:102E5000A7EB0A0000E0002000EB0A0100900598B3
:102E60004144401A0590E00306D45B462146179A78
:102E7000059800F0B3F90544002706E001A85A467A
:102E8000C05D179990476D1C7F1C4745F6DBE0033A
:102E90000CD55B462146179A059800F09FF905442A
:102EA00004E030205A46179990476D1C0099481E3F
:102EB00000900029F5DC08E0029802995A46007853
:102EC000491C0291179990476D1CBAF10001AAF1B3
:102ED000010AF1DC65E100000928010030313233DC
:102EE0003435363738396162636465660000000046
:102EF0003031323334353637383941424344454630
:102F00000000000000F058F90544761C30780028D5
:102F10007FF4ECAD19B02846BDE8F08F620700D40D
:102F2000062709F1070222F0070CFCE80223E1461C
:102F300003F000485FEA080C02D00FF2702C0DE09D
:102F40005FEA045C02D50FF2682C07E05FEAC47CFC
:102F500002D00FF2602C01E0AFF2700C4FF0FF389E
:102F600023F00043CDF850C065280CD006DC45287E
:102F700009D046281DD047283DD13DE0662818D00D
:102F800067287ED138E00021112F01DB112000E0FD
:102F9000781CCDE9000106A90EA8FFF7D5FCDDE9F4
:102FA0000F010E9A03910021009207F1010A04918A
:102FB0004DE04FF000400097CDE9011006A90EA8A2
:102FC000FFF7C2FCDDE90F0203920E9B119900226C
:102FD000DDF80CA00093049211B9791C00EB010AF2
:102FE000B7EB0A0004D4C0F1FF3007F1010A0490E6
:102FF000AAEB0700019044E0012F00DA012700212D
:10300000112F01DD112000E03846CDE9000106A9AD
:103010000EA8FFF799FCDDE90F010E9A039100213C
:1030200004910092BA4621070CD40399514500DA65
:103030008A46BAF1010F05DD009AAAF10101515C3F
:10304000302908D0B84202DA10F1040F06DA012163
:10305000CDE9011015E0AAF10101E9E7002805DC3E
:10306000049901440491AAEB000102E0411C51457E
:1030700000DD8A460499401A401C01904FF0004040
:103080000290200704D40198504501DBCDF804805C
:1030900000208DF84F0002980DF14F07B0F1004F5E
:1030A00025D02B200E9002984FF0020800280CDA51
:1030B000404202902D200E9007E00A210298FDF771
:1030C000FDF83031029007F8011DB8F10001A8F1B8
:1030D0000108F2DC02980028EFD1791E0E980870E2
:1030E000307800F0200040F0450007F8020D12A8EB
:1030F000C01B00F107081498007800B1012000EB14
:103100000A01019801EBE07105984144401A401E04
:103110000590E00306D45B462146179A059800F017
:103120005DF805441498007818B15A4617999047ED
:103130006D1CE00324D55B462146179A059800F0E4
:103140004DF805441CE00498002807DBDDE9030185
:10315000884203DD0098405C179901E01799302000
:103160005A469047049805F10105401C04900198C7
:10317000401E019004D12E205A46179990476D1C8D
:10318000BAF10001AAF1010ADDDC05E017F8010B34
:103190005A46179990476D1CB8F10001A8F1010833
:1031A000F4DC5B462146179A0598ABE62D0000003B
:1031B0002B000000200000002DE9F041044600250E
:1031C0001E461746880404D405E039462020B0473F
:1031D0006D1C641EF9D52846BDE8F0812DE9F0414B
:1031E000044600251E469046C80301D5302700E05E
:1031F0002027880404D505E041463846B0476D1CB9
:10320000641EF9D52846BDE8F0814A68002A06D038
:103210000A68531C0B6010704868401E4860704775
:103220000A68531C0B601070704700000248B0F829
:103230000018FCF7C2BF0000C01200200FB42DE937
:10324000FF412E4C0025ADF80C5094F806082E4690
:1032500060B12BA34FF4C9722F4930A000F096FB48
:10326000681F04B0BDE8F0015DF814FB012084F88C
:103270000608FEF7FDF907462A4884F80D58C4F8F9
:103280000808A0F80258D4F808080BA9A0F80658B6
:1032900084F80C580A9800F05DFB00BF00F0B0F80D
:1032A000FEF7E6F9D4F80818C01BD1F808188842D0
:1032B0001BD903A800F050F8D4F80818BDF80C206A
:1032C00019A3D1F80818CDE9002002914FF4D57266
:1032D000114912A004F6080400F058FB6FF0010633
:1032E0006671256004F8025C05E094F80C0801287A
:1032F000D4D184F806583046B3E700009C0A002079
:1033000053656E6420415420434D442052756E6EC7
:10331000696E67210D0A0000FE3C000844454255D5
:1033200047000000C0120020657865637574652051
:10333000636F6D6D616E642028252E2A73292074B9
:10334000696D656F757420282564207469636B73DB
:1033500029210D0A00000000024949880180024825
:1033600070470000020000201C02002070B54FF4DE
:10337000006632460E490F4800F03EFC0E4C002518
:103380003146A4F80468A4F80258601CFCF715FF45
:1033900084F8065884F80C58C4F81058A4F8145847
:1033A000BDE8704005A33A2209490AA000F0EEBA30
:1033B0009C020020B41200209C0A002061745F6906
:1033C0006E6974206973206F6B2E0D0A0000000077
:1033D000CC3C00084445425547000000074A4FF4E2
:1033E0000063A2F80038A2F804080020A2F806083A
:1033F000C2F8081819461046FCF7DFBEC0120020BC
:10340000F8B500F0E9F800285FDD00F0F9FA354D75
:1034100048B18268002A58D0B5F8021801B0681C7B
:10342000BDE8F0401047D5F80848002C4DD0B5F85D
:10343000020800262E54B4F80208B5F80228B4F8A1
:1034400000388118994210D22044691CFCF79CFE78
:10345000B4F80208B5F802180844A4F80208B4F851
:103460000608401CA4F806080CE0FD2085F80D08AD
:10347000B4F8000800901C4B4FF490721B491CA03C
:1034800000F084FA02221CA1681CFCF7C6FE10B9E9
:10349000B4F8040890B119A1681CFCF7A5FEA8B9FE
:1034A000042218A1681CFCF7B8FE78B1B4F806181D
:1034B000B4F80408814208D1002806D085F80D68C8
:1034C0000120C5F8086885F80C08F8BDFF2085F8CC
:1034D0000D080EA340F22D12044905A000F056FA83
:1034E000EEE700009C0A00208C3E0008E53C000846
:1034F00044454255470000004F4B00004552524F93
:10350000520000004641494C00000000675F6174B2
:103510005F696E666F2E726573705F737461747528
:1035200073204641494C000010B590B0024612A1EC
:1035300002A8FFF7BFF94FF47A73002211A102A885
:1035400000F034F944B24CB102A8CDE900040EA356
:10355000ED22184918A000F019FA0AE018A000F0AE
:10356000F7F830B1009018A3F522124912A000F02C
:103570000DFA10B0204610BD41542B4347534E3D29
:10358000256400004F4B0000636865636B5F7365E3
:103590006E645F636D643A202573206973206572E1
:1035A000726F722C726573756C743A2025642021D9
:1035B00000000000943D0008494E464F0000000006
:1035C0002B4347534E3A2000696D65695F737472EF
:1035D0003A202573000000002DE9FC470024DFF8A5
:1035E000C4908DF804404D462646A0462746B9F8BB
:1035F0000418681CFCF7E1FDA5F8026800F0F8F972
:10360000294D18B10120287000F05AFB28780128B4
:1036100003D04FF0FF30BDE8FC87244800F0BCFA2F
:10362000B0B14D46214800F0B7FAA8B3012201A974
:103630001E4800F0BCFAB5F80408A0420CD92919BC
:103640009DF80400641C4870A4B2A5F8024804E088
:103650002E706FF00500DEE701279DF804000A28B0
:1036600002D1B8F10D0F02D000F0CAF9A8B19FB194
:10367000B5F8040800902C460D4BEE220D490EA023
:1036800000F084F9B4F80418601CFCF796FDA4F867
:1036900002686FF00200BEE702E09DF80480C1E717
:1036A0002046B8E79C0A002002000020B412002047
:1036B000E03E0008D43C0008444542554700000065
:1036C000F8B5104C064627460125B7F80608B04263
:1036D00000D38EB90CA34FF4E4721A491AA00096D5
:1036E00000F054F90CE0AE4220460AD0FCF78EFD03
:1036F0006D1C0444ADB2641CB7F80608A842F2D2AF
:103700000020F8BDC0120020415420726573706F14
:103710006E736520676574206C696E6520666169EB
:103720006C65642120496E70757420726573706FCA
:103730006E7365206C696E65282564292065727238
:103740006F7221000A3D00084445425547000000C1
:103750002DE9F0410C4C0746012526460CE0394680
:103760002046FCF741FD002820460AD1FCF74EFD1B
:103770006D1C0444ADB2641CB6F80608A842EED233
:103780000020BDE8F0810000C01200200FB410B589
:10379000FFF7DEFF30B104AA0399FCF75BFD10BC14
:1037A0005DF814FB4FF0FF30F9E70000F0B5A1B071
:1037B0000D4604461E461746802101A8FCF7FDFC75
:1037C00031463846FFF70AFE1AA34FF410721D491E
:1037D0001DA0009400F0DAF82046FFF72FFD04004A
:1037E00007D51BA340F24522164917A000F0CEF8DA
:1037F00012E000F069F8D5B101AA22A12846FFF72E
:10380000C5FF00280BDC20A340F251220D4922A065
:1038100000F0BCF84FF0FF34FFF708FD07E000248C
:103820001FA340F2592207491BA000F0AFF821B0B6
:103830002046F0BD73656E642041543A25730D0A2D
:10384000000000002D3D0008494E464F00000000DA
:1038500073656E6420415420636F6D6D616E647397
:10386000206661696C6564206F72207761697420DD
:10387000726573706F6E73652074696D656F7574B2
:10388000210D0A002573000023203E5F3C20466185
:10389000696C65640D0A000044454255470000000C
:1038A00023205E5F5E207375636365737365640DCB
:1038B0000A0000000A4601464FF0FF330148FEF7B8
:1038C000B3BC00004C1B00202DE9FC41012440F258
:1038D000E716B71C0E4D14E02046FFF7F1FE40B18D
:1038E000CDE900400BA33246104911A000F04EF87C
:1038F00005E011A33A460D490DA000F047F8641CFD
:10390000A4B2B5F80608A042E6D2BDE8FC810000EA
:10391000C01200206C696E652025642062756666A1
:103920006572203A2025730D0A0000001B3D000837
:1039300044454255470000005061727365206C6930
:103940006E6520627566666572206572726F72219F
:103950000D0A000010B50B46024680210848FEF70C
:10396000BDFF084C08A160800548FCF731FC608869
:10397000801C81B261800248FFF79CFF608810BD07
:103980001C020020020000200D0A00000FB4F8B550
:1039900014460D4606460AAB4FF400710748099AD3
:1039A000FEF79CFF0548009023462A46314604A0B6
:1039B000FEF770FFF8BC5DF814FB00001C0000204F
:1039C0005B202573205D5B20257328293A25303440
:1039D000645D2025730A000013B54FF6FF730122C2
:1039E00069460248FEF720FC00981CBD0C1B002015
:1039F0000248008800F400407047000000000020EA
:103A00002DE9F05F2448D0F81018E9B300F1010B5C
:103A1000B0F802980024824632E0002528E000BF7A
:103A200000EBC40005EB4501406800EB81063068FF
:103A3000FCF7ECFB1FFA80F87068FCF7E7FB87B235
:103A400008EB0701494511D8B8F1000005D002463E
:103A500058463168FCF7EEFB40B9D7B10BEB0900D3
:103A6000C01B3A467168FCF7E5FB90B16D1CADB226
:103A7000DAF8100850F83410A942D1D8641CA4B266
:103A8000BAF81418A14200E000E0C6D80020BDE852
:103A9000F09F3046FBE700009C0A0020FDF7F6FD92
:103AA000FEF730FDFEF720FCFEF7CCFCFEF7ECFC49
:103AB000FEF706FD012216491648FEF773FBFFF7D5
:103AC00055FC15A369221A491AA0FFF75FFF4FF4AE
:103AD0007A7400BFFFF794FC2346002217A118A0B8
:103AE000FFF764FE28B917A37722114911A0FFF749
:103AF0004DFF0120FFF718FD28B912A37D220C49C4
:103B00000CA0FFF743FF2046FDF79EFCE2E7000014
:103B1000060000204C1B002041545F436F6D706F06
:103B20006E656E742072756E696E672E2E2E0000A3
:103B3000E83D0008494E464F000000004F4B000092
:103B400041540000636865636B5F73656E645F6317
:103B50006D64206F6B0D0A0031B5FFF749FF002837
:103B600011D10B4C2088B0F5006F0DD200F09AF8FF
:103B7000208808B900F09EF801226946054800F047
:103B800049F800F07FF838BD00F084F838BD000037
:103B900000000020B41200208188C28800898A1A9F
:103BA000104490FBF1F201FB120080B2704770B537
:103BB00016460D460346C488FFF7EEFF864200D244
:103BC0003046B8B100220BE01968095DA954521CB7
:103BD0009988641CB4FBF1F601FB164192B28CB2D9
:103BE0008242F1D1D98808449988B0FBF1F201FBF7
:103BF0001200D880002070BD48B141B1016022F0B0
:103C0000030181800021C1800181084670474FF087
:103C1000FF3070472DE9F0410F4604468188008946
:103C2000E388081A401E80B20344B3FBF1F501FBA0
:103C30001533934205D8E2880244B2FBF1F301FB4D
:103C40001322401C86B22189206895B20844B542EF
:103C500001D22A4600E032463946FCF795FAAE42D8
:103C600004D2AA1BB9192068FCF78EFA2089A18812
:103C70002844B0FBF1F201FB120020812846BDE888
:103C8000F081000002480188491C01807047000053
:103C9000000000200248018841F400410180704783
:103CA00000000020024900200968486270470000B7
:103CB000CC1A00200148FEF763B80000CC1A00209F
:103CC00001490020088070470000002061745F698E
:103CD0006E69740061745F726563765F72656164BA
:103CE0006C696E650061745F70617273657200610A
:103CF000745F73656E645F6D6F64756C650061748D
:103D00005F657865635F636D640061745F7265739E
:103D1000705F6765745F6C696E650061745F73687E
:103D20006F775F726573705F696E666F0061745F55
:103D300073656E645F636D640061745F7365745F67
:103D4000717273740061745F7475726E5F6F666612
:103D50005F6563686F0061745F7365745F63667548
:103D60006E0061745F7365745F636C65616E5F663E
:103D700072657175656E63790061745F71756572E6
:103D8000795F6373710061745F71756572795F71DA
:103D9000656E670061745F71756572795F636773E3
:103DA0006E0061745F7365745F7173636C6B006147
:103DB000745F7365745F6370736D730061745F73B8
:103DC00065745F6365647278730061745F736574B2
:103DD0005F71706F77640061745F71756572795F90
:103DE00063677061646472006D61696E0000000059
:103DF000000000000001020304060708090000009B
:103E00000001020304004040404040404040404127
:103E1000414141414040404040404040404040409E
:103E200040404040404005020202020202020202FB
:103E30000202020202022020202020202020202036
:103E400002020202020202909090909090101010D4
:103E50001010101010101010101010101010101062
:103E600010020202020202888888888888080808EE
:103E700008080808080808080808080808080808C2
:103E80000802020202400000063E0008526561641A
:103E900020726573706F6E736520627566666572F9
:103EA000206661696C65642E2054686520526573D4
:103EB000706F6E7365206275666665722073697ACD
:103EC00065206973206F7574206F66206275666661
:103ED00065722073697A6528256429210000000035
:103EE00072656164206C696E65206661696C6564E9
:103EF0002E20546865206C696E65206461746120B1
:103F00006C656E677468206973206F7574206F66C6
:103F1000206275666665722073697A652825642952
:103F200021000000443F0008000000201C000000A9
:103F300028290008603F00081C00002074230000AE
:103F40003829000800000000000000000100000007
:103F500010000000000000000024F4000000000039
:0400000508000131BD
:00000001FF
